:0409260002120000B9
:1008E300E4FDFCC3ED9FEC9E5015E4FBFA0BBB004B
:0F08F300010AEB64644A70F50DBD00010C80E44E
:0109020022D2
:10088C00E4F510F511D284D2857F01FE1208E3C283
:10089C0084C2852086FD3086FDD287AFA0751000FE
:0F08AC008F118511B07F017E001208E3C28722F1
:1008BB00D3E5139FEE6480F8E5126480985015E53C
:1008CB001325E02408F8A61008A6110513E51370EC
:0808DB000605122275B0082287
:09091D00C282C281C28002088C72
:1009030075A0FFD286C284C287C28575A882D28CA5
:0A09130012091DE4F510F51180F63D
:03000000020800F3
:0C080000787FE4F6D8FD758113020847EC
:10080C00020903E493A3F8E493A34003F68001F2F6
:10081C0008DFF48029E493A3F85407240CC8C333ED
:10082C00C4540F4420C8834004F456800146F6DFBC
:10083C00E4800B0102040810204080900926E47E1D
:10084C00019360BCA3FF543F30E509541FFEE493B1
:10085C00A360010ECF54C025E060A840B8E493A378
:10086C00FAE493A3F8E493A3C8C582C8CAC583CAA3
:10087C00F0A3C8C582C8CAC583CADFE9DEE780BE5B
:01092A0000CC
:00000001FF
