:100C1F000A1D000000000000000000000127001462
:100C2F00093E7573EB3CD70A3D3CDD82FD3CE42564
:080C3F00AF3CE8683401080530
:100C8500E4FDEDC39FE49E5009E4FC0CBC64FC0D3F
:020C950080F0ED
:010C9700223A
:100AD800E4F529F52AE527C395085010E52725E010
:100AE800241DF8A60608A60705278035E4F528E59D
:100AF8000814FDE528C39D501CE52825E0241FF8AF
:100B0800E6FC08E6FDE52825E0241DF8A60408A66D
:100B180005052880DAE50825E0241BF8A60608A6BE
:100B280007E4F528E528C395085053E52825E0246F
:100B38001DF8E6FC08E6FDEC120A03E528F4042596
:100B48000825E025E02405F8120ACB1208F8E4FB92
:100B5800FA797F78431208F8C004C005C006C007B8
:100B6800AC29AD2AEC120A03D003D002D001D00080
:100B7800120807120A3C8E298F2A052880A6E52923
:0A0B8800F52A3395E0F529852AB01F
:010B92002240
:100C4800D284D2857F017E00120C85C284C28520A1
:100C580086FD3086FDD287AFA07E00120AD87F01BC
:080C68007E00120C85C28722F8
:090C9800C282C281C280020C4834
:100C700075A0FFD286C284C287C28575A882D28C35
:050C8000120C9880FB3E
:10080000020AA8E86480F8E933E83360110460F074
:10081000ED33EC337009E8FCE9FDEAFEEBFF22045E
:1008200060DED3EB9FEA9EE99DE8C2E78CF0C2F759
:1008300095F0400CE8CCF8E9CDF9EACEFAEBCFFB25
:10084000120A7385D0F05804700320D5B3E8047001
:10085000075002B2D5020AB292D5EC0460F7E4CC9C
:10086000C0E0C398F8603B94186008400DD0E0FBEE
:10087000020A8AE4FBFAC9FC8028E830E406E4C9ED
:10088000FBE4CAFCE830E305E4C9CACBFCE8540742
:100890006010F8C3E913F9EA13FAEB13FBEC13FC4D
:1008A000D8F130F52FC3E49CFCEF9BFFEE9AFEEDF0
:1008B00099FDD0E0FBEF4E4D4C701222DB03020A93
:1008C000AFEC2CFCEF33FFEE33FEED33FDED30E704
:1008D000EB020A8AEF2BFFEE3AFEED39FDD0E0FB8A
:1008E00050130BBB0003020AB2ED13FDEE13FEEF33
:0808F00013FFEC13FC020A8A5D
:1008F800EC4D6011E8497017ED33EC3304600DE4FA
:10090800FCFFFEFD22E933E8330470F8020AA8125E
:100918000A7358046009E4CC24815006285009025F
:100928000AB2284003020AAFC0E0EB4A7044B9801B
:1009380006D0E0FB020A9EEF4E701CBD8008EBFF5C
:10094800EAFEE9FD80EBE98DF0A4FEE5F00209E19D
:10095800E9CDF9EAFEEBFFEF89F0A4FCE5F0CE89DA
:10096800F0A42EFFE435F0CD89F0A42DFEE435F097
:100978008067EF4E7005BD80D780C3EF8BF0A4ACC5
:10098800F0EE8BF0A42CFCE435F0F8EF8AF0A42C00
:10099800E5F038FCE433CB8DF0A42CFCE5F03BF813
:1009A800EE8AF0A42CFCE5F038F8E433CF89F0A403
:1009B8002CFCE5F038CF3400CE89F0A42FFFE5F009
:1009C8003EFEE433C98DF0A42EFEE5F039CD8AF061
:1009D800A42FFFE5F03EFEE43DFD33D0E0FB5007D9
:1009E8000BBB000F020AB2EC2CFCEF33FFEE33FE18
:0609F800ED33FD020A8A46
:1009FE0075F020800E75F010800575F0087D007E74
:100A0E00007F003392D530D503120ABDEC3340106F
:100A1E00EF33FFEE33FEED33FDEC33FCD5F0ED227C
:0E0A2E00E5F0247EA2D513CC92E7CDCEFF22B8
:100A3C00EDD2E7CD33EC3392D524814006E4FFFEB2
:100A4C00FDFC22FCE4CFCECDCC24E0501174FF8011
:100A5C00EDC3CC13CCCD13CDCE13CECF13CF0470AE
:070A6C00F030D5DE020ABDE7
:100A7300E9D2E7C933E833F892D5EDD2E7CD33ECC9
:070A830033FC5002B2D52242
:100A8A00EC30E7100FBF000C0EBE00080DBD0004CD
:100A9A000BEB6014A2D5EB13FCED92E7FD2274FF79
:100AAA00FCFDFEFF22E480F8A2D574FF13FC7D80D2
:030ABA00E480EFE6
:03000000020B935D
:0C0B9300787FE4F6D8FD75812A020BDAA9
:0E0ABD00C3E49FFFE49EFEE49DFDE49CFC224A
:0D0ACB00E6FB08E6F908E6FA08E6CBF8229B
:100B9F00020C70E493A3F8E493A34003F68001F2F0
:100BAF0008DFF48029E493A3F85407240CC8C33357
:100BBF00C4540F4420C8834004F456800146F6DF26
:100BCF00E4800B0102040810204080900C1FE47E8B
:100BDF00019360BCA3FF543F30E509541FFEE4931B
:100BEF00A360010ECF54C025E060A840B8E493A3E2
:100BFF00FAE493A3F8E493A3C8C582C8CAC583CA0D
:100C0F00F0A3C8C582C8CAC583CADFE9DEE780BEC4
:010C470000AC
:00000001FF
