:100CCE00011F05011E00011C00011D000A2000006D
:100CDE00000000000000000014083E7573EB3CD7C6
:0E0CEE000A3D3CDD82FD3CE425AF3CE8683465
:100CFD00E4FDEDC39FE49E5012E4FCECC3946474D8
:0B0D0D0080948050030C80F30D80E701
:010D180022B8
:100B2D00E4F52BF52CE51E25E02420F8A60608A6F5
:100B3D0007E51E2401FFE433FEAD1F7C00120ABD44
:100B4D008D1EE51E7003751D01E51D705FF52AE50F
:100B5D002AC3951E4003020C35E52A25E02420F812
:100B6D00E6FC08E6FDEC120A03E52AF404251F2530
:100B7D00E025E02404F8120B201208F8E4FBFA79C2
:100B8D007F78431208F8C004C005C006C007AC2B1F
:100B9D00AD2CEC120A03D003D002D001D000120804
:100BAD0007120A3C8E2B8F2C052A80A3E4F52AE52B
:100BBD002AC3951F5061E51C252AFFE433FEAD1FA6
:100BCD007C00120ABDED25E02420F8E6FC08E6FDC8
:100BDD00EC120A03E52AF404251F25E025E0240480
:100BED00F8120B201208F8E4FBFA797F784312080B
:100BFD00F8C004C005C006C007AC2BAD2CEC120A22
:100C0D0003D003D002D001D000120807120A3C8E87
:100C1D002B8F2C052A8098E51E2401FFE433FEADB1
:100C2D001F7C00120ABD8D1CE52BF52C3395E0F5CC
:040C3D002B852CB027
:010C41002290
:100D1900D284D285C284C2852086FD3086FDD287E1
:060D290085A0B0C2872284
:090D4200C282C281C280020D19B7
:100D2F0075A0FFD286C284C287C28575A882120DB4
:030D3F004280FBF4
:10080000020AA8E86480F8E933E83360110460F074
:10081000ED33EC337009E8FCE9FDEAFEEBFF22045E
:1008200060DED3EB9FEA9EE99DE8C2E78CF0C2F759
:1008300095F0400CE8CCF8E9CDF9EACEFAEBCFFB25
:10084000120A7385D0F05804700320D5B3E8047001
:10085000075002B2D5020AB292D5EC0460F7E4CC9C
:10086000C0E0C398F8603B94186008400DD0E0FBEE
:10087000020A8AE4FBFAC9FC8028E830E406E4C9ED
:10088000FBE4CAFCE830E305E4C9CACBFCE8540742
:100890006010F8C3E913F9EA13FAEB13FBEC13FC4D
:1008A000D8F130F52FC3E49CFCEF9BFFEE9AFEEDF0
:1008B00099FDD0E0FBEF4E4D4C701222DB03020A93
:1008C000AFEC2CFCEF33FFEE33FEED33FDED30E704
:1008D000EB020A8AEF2BFFEE3AFEED39FDD0E0FB8A
:1008E00050130BBB0003020AB2ED13FDEE13FEEF33
:0808F00013FFEC13FC020A8A5D
:1008F800EC4D6011E8497017ED33EC3304600DE4FA
:10090800FCFFFEFD22E933E8330470F8020AA8125E
:100918000A7358046009E4CC24815006285009025F
:100928000AB2284003020AAFC0E0EB4A7044B9801B
:1009380006D0E0FB020A9EEF4E701CBD8008EBFF5C
:10094800EAFEE9FD80EBE98DF0A4FEE5F00209E19D
:10095800E9CDF9EAFEEBFFEF89F0A4FCE5F0CE89DA
:10096800F0A42EFFE435F0CD89F0A42DFEE435F097
:100978008067EF4E7005BD80D780C3EF8BF0A4ACC5
:10098800F0EE8BF0A42CFCE435F0F8EF8AF0A42C00
:10099800E5F038FCE433CB8DF0A42CFCE5F03BF813
:1009A800EE8AF0A42CFCE5F038F8E433CF89F0A403
:1009B8002CFCE5F038CF3400CE89F0A42FFFE5F009
:1009C8003EFEE433C98DF0A42EFEE5F039CD8AF061
:1009D800A42FFFE5F03EFEE43DFD33D0E0FB5007D9
:1009E8000BBB000F020AB2EC2CFCEF33FFEE33FE18
:0609F800ED33FD020A8A46
:1009FE0075F020800E75F010800575F0087D007E74
:100A0E00007F003392D530D503120B12EC33401019
:100A1E00EF33FFEE33FEED33FDEC33FCD5F0ED227C
:0E0A2E00E5F0247EA2D513CC92E7CDCEFF22B8
:100A3C00EDD2E7CD33EC3392D524814006E4FFFEB2
:100A4C00FDFC22FCE4CFCECDCC24E0501174FF8011
:100A5C00EDC3CC13CCCD13CDCE13CECF13CF0470AE
:070A6C00F030D5DE020B1291
:100A7300E9D2E7C933E833F892D5EDD2E7CD33ECC9
:070A830033FC5002B2D52242
:100A8A00EC30E7100FBF000C0EBE00080DBD0004CD
:100A9A000BEB6014A2D5EB13FCED92E7FD2274FF79
:100AAA00FCFDFEFF22E480F8A2D574FF13FC7D80D2
:030ABA00E480EFE6
:03000000020C42AD
:0C0C4200787FE4F6D8FD75812C020C8947
:100ABD00BC000BBE0029EF8DF084FFADF022E4CC1D
:100ACD00F875F008EF2FFFEE33FEEC33FCEE9DECE6
:100ADD00984005FCEE9DFE0FD5F0E9E4CEFD22ED2C
:100AED00F8F5F0EE8420D21CFEADF075F008EF2F76
:100AFD00FFED33FD4007985006D5F0F222C398FD67
:050B0D000FD5F0EA2203
:0E0B1200C3E49FFFE49EFEE49DFDE49CFC22F4
:0D0B2000E6FB08E6F908E6FA08E6CBF82245
:100C4E00020D2FE493A3F8E493A34003F68001F280
:100C5E0008DFF48029E493A3F85407240CC8C333A7
:100C6E00C4540F4420C8834004F456800146F6DF76
:100C7E00E4800B0102040810204080900CCEE47E2C
:100C8E00019360BCA3FF543F30E509541FFEE4936B
:100C9E00A360010ECF54C025E060A840B8E493A332
:100CAE00FAE493A3F8E493A3C8C582C8CAC583CA5D
:100CBE00F0A3C8C582C8CAC583CADFE9DEE780BE15
:010CFC0000F7
:00000001FF
