:100DC4003A4804103BAC9F303C68AB503CD3CFF660
:100DD4003D135A863D23D70A3D135A863CD3CFF69A
:100DE4003C68AB503BAC9F303A480410B58637BDE5
:100DF400B8B88CA4B9E30447BA8B32CFBAE10CF685
:100E04003F7F7CEEBAE10CF6BA8B32CFB9E30447EC
:100E1400B8B88CA4B58637BD3A4804103BAC9F30B3
:100E24003C68AB503CD3CFF63D135A863D23D70ADA
:100E34003D135A863CD3CFF63C68AB503BAC9F3055
:040E44003A48041014
:100EA800013B01013A0B01390001350001380016F8
:100EB8003C000000000000000000000000000000EE
:070EC8000000000000000023
:100C2300E4F536F537E53925E0243CF8A60608A6B1
:100C330007E5392401FFE433FEAD3A7C00120BB320
:100C43008D39E5397003753801E538705FF534E5A2
:100C530034C395394003020D2BE53425E0243CF8D9
:100C6300E6FC08E6FDEC120A03E534F404253A2514
:100C7300E025E02400F8120C161208F8E4FBFA79D8
:100C83007F78431208F8C004C005C006C007AC361D
:100C9300AD37EC120A03D003D002D001D000120802
:100CA30007120A3C8E368F37053480A3E4F534E50A
:100CB30034C3953A5061E5352534FFE433FEAD3A4C
:100CC3007C00120BB3ED25E0243CF8E6FC08E6FDBE
:100CD300EC120A03E534F404253A25E025E0240068
:100CE300F8120C161208F8E4FBFA797F784312081D
:100CF300F8C004C005C006C007AC36AD37EC120A15
:100D030003D003D002D001D000120807120A3C8E90
:100D1300368F3705348098E5392401FFE433FEAD7F
:100D23003A7C00120BB38D35E536F5373395E0F594
:040D3300368537B01A
:010D37002299
:100ED000D284D285C284C2852086FD3086FDD28729
:0A0EE000AFA07E00120C23C287228F
:090EEA00C282C281C280020ED056
:0D0E480075A0FF7590FFAF90EF6401701171
:100E550078087C00FD7BFF7A0D79C4FE7F2C120B90
:010E65008DFF
:070E6600AF90EF640870116A
:100E6D0078087C00FD7BFF7A0D79F0FE7F2C120B4C
:010E7D008DE7
:070E7E00AF90EF641070114A
:100E850078087C00FD7BFF7A0E791CFE7F2C120B07
:010E95008DCF
:100E9600D286C284C287C28575A882D28C120EEA17
:020EA60080FBCF
:10080000020AA8E86480F8E933E83360110460F074
:10081000ED33EC337009E8FCE9FDEAFEEBFF22045E
:1008200060DED3EB9FEA9EE99DE8C2E78CF0C2F759
:1008300095F0400CE8CCF8E9CDF9EACEFAEBCFFB25
:10084000120A7385D0F05804700320D5B3E8047001
:10085000075002B2D5020AB292D5EC0460F7E4CC9C
:10086000C0E0C398F8603B94186008400DD0E0FBEE
:10087000020A8AE4FBFAC9FC8028E830E406E4C9ED
:10088000FBE4CAFCE830E305E4C9CACBFCE8540742
:100890006010F8C3E913F9EA13FAEB13FBEC13FC4D
:1008A000D8F130F52FC3E49CFCEF9BFFEE9AFEEDF0
:1008B00099FDD0E0FBEF4E4D4C701222DB03020A93
:1008C000AFEC2CFCEF33FFEE33FEED33FDED30E704
:1008D000EB020A8AEF2BFFEE3AFEED39FDD0E0FB8A
:1008E00050130BBB0003020AB2ED13FDEE13FEEF33
:0808F00013FFEC13FC020A8A5D
:1008F800EC4D6011E8497017ED33EC3304600DE4FA
:10090800FCFFFEFD22E933E8330470F8020AA8125E
:100918000A7358046009E4CC24815006285009025F
:100928000AB2284003020AAFC0E0EB4A7044B9801B
:1009380006D0E0FB020A9EEF4E701CBD8008EBFF5C
:10094800EAFEE9FD80EBE98DF0A4FEE5F00209E19D
:10095800E9CDF9EAFEEBFFEF89F0A4FCE5F0CE89DA
:10096800F0A42EFFE435F0CD89F0A42DFEE435F097
:100978008067EF4E7005BD80D780C3EF8BF0A4ACC5
:10098800F0EE8BF0A42CFCE435F0F8EF8AF0A42C00
:10099800E5F038FCE433CB8DF0A42CFCE5F03BF813
:1009A800EE8AF0A42CFCE5F038F8E433CF89F0A403
:1009B8002CFCE5F038CF3400CE89F0A42FFFE5F009
:1009C8003EFEE433C98DF0A42EFEE5F039CD8AF061
:1009D800A42FFFE5F03EFEE43DFD33D0E0FB5007D9
:1009E8000BBB000F020AB2EC2CFCEF33FFEE33FE18
:0609F800ED33FD020A8A46
:1009FE0075F020800E75F010800575F0087D007E74
:100A0E00007F003392D530D503120C08EC33401022
:100A1E00EF33FFEE33FEED33FDEC33FCD5F0ED227C
:0E0A2E00E5F0247EA2D513CC92E7CDCEFF22B8
:100A3C00EDD2E7CD33EC3392D524814006E4FFFEB2
:100A4C00FDFC22FCE4CFCECDCC24E0501174FF8011
:100A5C00EDC3CC13CCCD13CDCE13CECF13CF0470AE
:070A6C00F030D5DE020C089A
:100A7300E9D2E7C933E833F892D5EDD2E7CD33ECC9
:070A830033FC5002B2D52242
:100A8A00EC30E7100FBF000C0EBE00080DBD0004CD
:100A9A000BEB6014A2D5EB13FCED92E7FD2274FF79
:100AAA00FCFDFEFF22E480F8A2D574FF13FC7D80D2
:030ABA00E480EFE6
:03000000020D38B6
:0C0D3800787FE4F6D8FD758151020D7F34
:100ABD00E709F608DFFA8046E709F208DFFA803E1B
:100ACD0088828C83E709F0A3DFFA8032E309F60808
:100ADD00DFFA8078E309F208DFFA807088828C8370
:100AED00E309F0A3DFFA806489828A83E0A3F60824
:100AFD00DFFA805889828A83E0A3F208DFFA804CFE
:100B0D0080D280FA80C680D4806980F280338010D4
:100B1D0080A680EA809A80A880DA80E280CA80333D
:100B2D0089828A83ECFAE493A3C8C582C8CCC583B5
:100B3D00CCF0A3C8C582C8CCC583CCDFE9DEE78085
:100B4D000D89828A83E493A3F608DFF9ECFAA9F004
:100B5D00EDFB2289828A83ECFAE0A3C8C582C8CC5A
:100B6D00C583CCF0A3C8C582C8CCC583CCDFEADE73
:100B7D00E880DB89828A83E493A3F208DFF980CCD5
:100B8D0088F0EF60010E4E60C388F0ED2402B404CE
:100B9D000050B9F582EB2402B4040050AF23234575
:060BAD008223900B0D7382
:100BB300BC000BBE0029EF8DF084FFADF022E4CC26
:100BC300F875F008EF2FFFEE33FEEC33FCEE9DECEF
:100BD300984005FCEE9DFE0FD5F0E9E4CEFD22ED35
:100BE300F8F5F0EE8420D21CFEADF075F008EF2F7F
:100BF300FFED33FD4007985006D5F0F222C398FD70
:050C03000FD5F0EA220C
:0E0C0800C3E49FFFE49EFEE49DFDE49CFC22FD
:0D0C1600E6FB08E6F908E6FA08E6CBF8224E
:100D4400020E48E493A3F8E493A34003F68001F26F
:100D540008DFF48029E493A3F85407240CC8C333B0
:100D6400C4540F4420C8834004F456800146F6DF7F
:100D7400E4800B0102040810204080900EA8E47E59
:100D8400019360BCA3FF543F30E509541FFEE49374
:100D9400A360010ECF54C025E060A840B8E493A33B
:100DA400FAE493A3F8E493A3C8C582C8CAC583CA66
:100DB400F0A3C8C582C8CAC583CADFE9DEE780BE1E
:010ECF000022
:00000001FF
